:04000000B8EF00F065
:100008004F82FACF3AF0FBCF3BF0E9CF3CF0EACF92
:100018003DF0E1CF3EF0E2CF3FF0D9CF40F0DACF6C
:1000280041F0F3CF42F0F4CF43F0F6CF44F0F7CFEE
:1000380045F0F8CF46F0F5CF47F077AE09D00F017D
:1000480020A905D0000E0001696F010E686F779E28
:10005800F2A421D005500610D8A41CD0010E00012E
:100068006027000E612362236323000163BF12D05F
:1000780000016351000162110001611105E1240EC4
:100088000001605DD8A006D04AC033F04BC034F000
:100098006AEC04F0F2949EA049D013041410D8A47A
:1000A80020D0010E0126000E0222032204220D0E8A
:1000B8000118021003100410D8B48A9A04BE11D093
:1000C80004500310021004E11B0E015CD8A009D0F3
:1000D8008A8A000E016E000E026E000E036E000E7C
:1000E800046E0F041010D8A420D0010E0126000EB3
:1000F8000222032204220D0E01180210031004101C
:10010800D8B48A9C04BE11D004500310021004E134
:100118001B0E015CD8A009D08A8C000E016E000E5F
:10012800026E000E036E000E046E9E9047C0F5FF2F
:1001380046C0F8FF45C0F7FF44C0F6FF43C0F4FFD0
:1001480042C0F3FF41C0DAFF40C0D9FF3FC0E2FF21
:100158003EC0E1FF3DC0EAFF3CC0E9FF3BC0FBFFFA
:100168003AC0FAFF4F921100EFEF04F023C07AF083
:10017800010E00017A1700017A510001766F776B42
:1001880023C07AF0020E00017A1700017A51176E27
:10019800186A1834183000017A6F1730176E7AC051
:1001A80018F023C07AF0040E00017A1700017A5182
:1001B800156E166A15C07AF016C07BF000017B3503
:1001C8007B337A3300017B357B337A337AC015F081
:1001D8007BC016F023C07AF0080E00017A170001E0
:1001E8007A51216E226A21C07AF022C07BF0000188
:1001F8007B357B337A3300017B357B337A330001DF
:100208007B357B337A337AC021F07BC022F023C060
:100218007AF0100E00017A1700017A511B6E1C6AE1
:100228001BC07AF01CC07BF0040E00017C6F00013B
:100238007B357B337A3300017C2FF9D77AC01BF0EA
:100248007BC01CF023C07AF0200E00017A17000151
:100258007A51196E1A6A19C07AF01AC07BF0050E25
:1002680000017C6F00017B357B337A3300017C2FE2
:10027800F9D77AC019F07BC01AF023C07AF0400E83
:1002880000017A1700017A511D6E1E6A1DC07AF0AE
:100298001EC07BF0060E00017C6F00017B357B33AE
:1002A8007A3300017C2FF9D77AC01DF07BC01EF08D
:1002B80023C07AF0800E00017A1700017A511F6E70
:1002C800206A1FC07AF020C07BF0070E00017C6F07
:1002D80000017B357B337A3300017C2FF9D77AC054
:1002E8001FF07BC020F01200010E4E6ED388D38A17
:1002F800D38C9B8C000E0001796F000E786F000E76
:10030800256E3F0E926E010E0F015D6F000E0F01FC
:100318005C6F000EC26E000EC16E800EC06EC08E85
:10032800C050C70B0809C06EC050F80B0209C06E58
:10033800000E896E0C0E936E000E8A6E000E946E7F
:10034800880E8B6E000E0C6E000E0B6E000E086E83
:10035800000E076E000E146E000E136E000E106E67
:10036800000E0F6E000E0E6E000E0D6E000E0001D8
:100378006F6F000E6E6F000E126E000E116E000E83
:1003880000016B6F000E6A6F000E0001776F000EA0
:10039800766F000E186E000E176E000E166E000EA9
:1003A800156E000E226E000E216E000E1C6E000EE1
:1003B8001B6E000E1A6E000E196E000E1E6E000ED9
:1003C8001D6E000E206E000E1F6E000E0001756F70
:1003D800000E746F000E0A6E000E096E000E00010A
:1003E800716F000E706F000E00016D6F000E6C6F64
:1003F800000E00018B6F050E8A6F000E0001736FEF
:10040800000E726FD58ED59CD59AD596D550F80B1F
:100418000309D56ECD9CCD9ECD86CD88CD8ACD8461
:10042800CD82CD80AA9E1200800E6F6E6E38E832A3
:10043800070B040AD8A4FAD7400E726E810E0E017B
:10044800436FB80E0E01446F050E0E01456FF80E8E
:100458000E017D6F000E0E01FA6F000E0E01FB6F8C
:100468000E01F869E00E0E01F96F000E0E01FE6F25
:10047800000E0E01FF6F0E01FC69E00E0E01FD6F0C
:10048800070E0E01466F000E0E01476FC00E0E01DB
:10049800796F0E017A690E017B690E017C69100E75
:1004A8000E01716FF20E0E01726F0E0173690E016B
:1004B80074690E0175690E0176690E0177690E017E
:1004C8007869000E0E01E26F000E0E01E36F320E26
:1004D8000E01E06FC00E0E01E16F000E0E01E66F17
:1004E800000E0E01E76F330E0E01E46F400E0E0191
:1004F800E56F000E0E01EA6F000E0E01EB6F330E72
:100508000E01E86FC00E0E01E96F0ED06E38E832AA
:10051800070B400AD8A417D0F9D76E38E832070B72
:10052800600AD8A410D0F9D7000E6F6E6E38E83282
:10053800070B0009D8A407D0F9D76E38E832070BA3
:10054800400AD8B4FAD7000E606E000E0F01306F63
:10055800000E0001696F000E686F12002450000140
:10056800826F836B00016A510001821906E1000164
:100578006B5100018319D8B4120024C06AF000013D
:100588006B6B24C07AF000017B6B000E00017D6F5D
:10059800020E7C6F0BEC04F07AC085F07BC086F00D
:1005A800880E0001876F0D040E10D8A417D0000123
:1005B8008751000185250001886F000E0001862102
:1005C8000001896F000189BF29D000018905D8A0E1
:1005D80025D0000E0001896F886920D00D500E10BB
:1005E800D8A41ED085C082F086C083F00001821F87
:1005F800831F824B832B0001875100018225000154
:10060800886F000E000183210001896F000189AF06
:1006180005D0000E0001896F000E886F88C08BFF1F
:1006280024500001826F836B00018A510001825DB2
:1006380000018351800A0001846F00018B51800AF8
:1006480000018459D8B002D08A901200E9EC05F074
:10065800120078EC01F018EC02F068EC05F0000EDE
:100668000001606F000E616F000E626F000E636F15
:10067800000E066E010E056E000E0001646F000E7E
:10068800656F000E666F000E676F898C899E9CEC03
:1006980003F00009D8B416D0000E066E000E056EE1
:1006A8008A82BAEC00F00001760500017711D8A41F
:1006B80009D0000E0001606F000E616F000E626FBE
:1006C800000E636F91EC05F0A2EC05F04FEC05F01D
:1006D80031EC05F0CDEC05F0B3EC05F07FEC05F05E
:1006E800B2EC02F0E2EC05F0C00E00017A6F080EE1
:1006F80000017B6F000E00017C6F70C07DF0010E61
:1007080000017E6F09C07FF00A500001806F29C088
:1007180081F02AC082F02BC083F0320E10EC05F075
:10072800190E00017B6F000E7A6FC1EC05F0AFD790
:10073800000E00017A6F60AE1CD063CF2DF064CF3D
:100748002EF061CF2FF062CF30F065CF2CF066CF5E
:1007580023F067CF24F068CF26F069CF27F06ACF5F
:1007680028F06BCF29F06CCF2AF06DCF2BF0609E6C
:100778003FD00F0130AF1DD033CF2DF034CF2EF046
:1007880031CF2FF032CF30F035CF2CF036CF23F0E9
:1007980037CF24F038CF26F039CF27F03ACF28F0DA
:1007A8003BCF29F03CCF2AF03DCF2BF00F01309FF3
:1007B8001FD00E0180AF1FD083CE2DF084CE2EF037
:1007C80081CE2FF082CE30F085CE2CF086CE23F06D
:1007D80087CE24F088CE26F089CE27F08ACE28F05E
:1007E8008BCE29F08CCE2AF08DCE2BF00E01809F77
:1007F800010E00017A6F00017A05D8A406D0000E18
:1008080000017A6F7792010E1200000E1200000E9E
:1008180000017F6F00017DAF08D000017C6D7D1F56
:10082800D8B07D2B010E00017F6F00017BAF08D08F
:1008380000017A6D7B1FD8B07B2B010E00017F1B56
:10084800000E0001816F000E806F00017C510001D5
:100858007D11D8B42CD0010E00017E6F06D00001A6
:10086800D8907C377D3700017E2B00017DAFF7D70C
:100878000001D8908037813700017C5100017A5DF2
:1008880000017D5100017B59D8A00AD000017C519C
:1008980000017A5F00017D5100017B5B00018081CE
:1008A8000001D8907D337C3300017E2FE1D7000111
:1008B8007F510001D8B405D00001806D811FD8B0E8
:1008C800812B80C07AF081C07BF01200F29EF29CEE
:1008D8008A928A888A90000E376E000E366E10D083
:1008E800898EC40E326E000E316ED9EC05F0899EE9
:1008F800C40E326E000E316ED9EC05F0364A372A36
:100908003350365C3750800A356E3450800A35587B
:10091800D8A0E6D7100E326E000E316ED9EC05F075
:100928000001680500016911D8A41FD0000E396EB6
:10093800000E386E10D0898EC40E326E000E316EE5
:10094800D9EC05F0899EC40E326E000E316ED9ECDA
:1009580005F0384A392A4850385C3950800A356ED3
:100968004950800A3558D8A0E6D7100E326E000ECE
:10097800316ED9EC05F0AFD7000EC26EC280F40E0E
:1009880000017B6F000E7A6FC1EC05F0C282C2B223
:10099800FED7C290C3CF7EF000017F6BC450000128
:1009A800816F806B00017E51000180110001826F10
:1009B80000017F51000181110001836F000183AFA5
:1009C80005D0000E0001836F000E826F82C07CF09C
:1009D80083C07DF0120000EE60F01A0EEE6AE806A1
:1009E800FDE100EE01F0300EEE6AE806FDE1DE0EF4
:1009F800F66E0B0EF76E000EF86E00EE48F010EE75
:100A080006F00900F5CFEEFFE550E150FAE14F900E
:100A18004F9200012DEF03F00001846F000E0F01CB
:100A2800236F000E0F01246F84C021FF7AC022FFBC
:100A38007BC025FF7CC026FF7DC027FF7EC028FF26
:100A48007FC029FF80C02AFF81C02BFF82C02CFFF6
:100A580083C02DFF0F01208712000F501B1804E1DF
:100A680010501C18D8B412001BC00FF01CC010F096
:100A78000FB002D08A9C01D08A8C000E016E000E45
:100A8800026E000E036E000E046E0FB002D08A9C38
:100A980001D08A8C12001350211804E11450221836
:100AA800D8B4120021C013F022C014F0000E016E59
:100AB800000E026E000E036E000E046E13B002D01C
:100AC8008A9A01D08A8A1200D08EF28EF28CF28A2B
:100AD800000E0001606F000E616F000E626F000E65
:100AE800636F9D80000E016E000E026E000E036E95
:100AF800000E046E120011501F1804E11250201845
:100B0800D8B412001FC011F020C012F01104121046
:100B1800D8A412008A908A8812000B50171804E192
:100B28000C501818D8B4120017C00BF018C00CF0ED
:100B38000B040C10D8A412008A9012000750151844
:100B480004E108501618D8B4120015C007F016C0F2
:100B580008F007B002D08A9E01D08A8E12000001E8
:100B68006E511D1805E100016F511E18D8B412000E
:100B78001DC06EF01EC06FF0120000017A07D8A0E9
:100B88007B0700017A29F9E100017B29D8B412001A
:100B9800F4D70D50191804E10E501A18D8B41200E1
:100BA80019C00DF01AC00EF012003106D8A0320696
:100BB8003128FBE13228D8B41200F7D7C0EC04F092
:100BC8007CC009F07DC00AF0120017501810D8A494
:0C0BD80012008A801200040003000201D9
:020000040020DA
:08000000FFFFFFFFFFFFFFFF00
:020000040030CA
:0E00000005087F7FFF8991FF0FC00FE00F40C2
:00000001FF
