:0400000044EF00F0D9
:100008005182FACF35F0FBCF36F0E9CF37F0EACF9F
:1000180038F0E1CF39F0E2CF3AF0D9CF3BF0DACF80
:100028003CF0F3CF3DF0F4CF3EF0F6CF3FF0F7CF02
:1000380040F0F8CF41F0F5CF42F077AE03D00F0192
:1000480020B9FFD742C0F5FF41C0F8FF40C0F7FF15
:100058003FC0F6FF3EC0F4FF3DC0F3FF3CC0DAFFEF
:100068003BC0D9FF3AC0E2FF39C0E1FF38C0EAFF20
:1000780037C0E9FF36C0FBFF35C0FAFF51921100C7
:100088003DEF02F0800E6F6E6E38E832070B040AFF
:10009800D8A4FAD7400E726E810E0E01436FB80EC7
:1000A8000E01446F050E0E01456FF80E0E017D6FAF
:1000B800000E0E01FA6F000E0E01FB6F0E01F869BB
:1000C800E00E0E01F96F000E0E01FE6F000E0E011C
:1000D800FF6F0E01FC69E00E0E01FD6F070E0E01A9
:1000E800466F000E0E01476FC00E0E01796F0E01AC
:1000F8007A690E017B690E017C69100E0E01716F21
:10010800F20E0E01726F0E0173690E0174690E0111
:1001180075690E0176690E0177690E017869000E1E
:100128000E01E26F000E0E01E36F320E0E01E06F5A
:10013800C00E0E01E16F000E0E01E66F000E0E01FB
:10014800E76F330E0E01E46F400E0E01E56F000EEF
:100158000E01EA6F000E0E01EB6F330E0E01E86F11
:10016800C00E0E01E96F0ED06E38E832070B400A58
:10017800D8A417D0F9D76E38E832070B600AD8A48C
:1001880010D0F9D7000E6F6E6E38E832070B0009F1
:10019800D8A407D0F9D76E38E832070B400AD8B48C
:1001A800FAD7000E606E000E0F01306F1200000EBD
:1001B800436E60AE1CD063CF31F064CF32F061CFB4
:1001C80033F062CF34F065CF30F066CF28F067CFD8
:1001D80027F068CF2AF069CF2BF06ACF2CF06BCFCD
:1001E8002DF06CCF2EF06DCF2FF0609E3FD00F0119
:1001F80030AF1DD033CF31F034CF32F031CF33F0C0
:1002080032CF34F035CF30F036CF28F037CF27F063
:1002180038CF2AF039CF2BF03ACF2CF03BCF2DF046
:100228003CCF2EF03DCF2FF00F01309F1FD00E0195
:1002380080AF1ED083CE31F084CE32F081CE33F041
:1002480082CE34F085CE30F086CE28F087CE27F0E7
:1002580088CE2AF089CE2BF08ACE2CF08BCE2DF0CA
:100268008CCE2EF08DCE2FF00E01809F010E436EA6
:100278004304D8A405D0000E436E7792010E1200F5
:10028800000E1200010E506ED388D38AD38C9B8C3B
:10029800000E266E000E256E000E296E000E0F0150
:1002A8005C6F5CCF5DFF3F0E926E000E896E1D0E77
:1002B800936E000E8A6E000E946E000E8B6E000E0A
:1002C8000C6E000E0B6E000E086E000E076E000E10
:1002D800046E000E036E000E146E000E136E000EF8
:1002E8000E6E000E0D6E000E0A6E000E096E000EE8
:1002F800106E000E0F6E000E026E000E016E000EE4
:100308001E6E000E1D6E000E1A6E000E196E000E87
:10031800186E000E176E000E246E000E236E000E6F
:10032800206E000E1F6E000E1C6E000E1B6E000E5F
:10033800226E000E216E000E166E000E156E000E57
:10034800066E000E056E000E126E000E116E000E87
:100358000C6E000E0B6E120046EC01F046EC00F03D
:10036800898EDBEC00F00009D8A4EBEC01F0CDECB1
:1003780002F0ADEC02F076EC02F054EC02F065EC21
:1003880002F0A1EC02F095EC02F087EC02F0B9EC77
:1003980002F0C00E436E080E446E05C045F011C051
:1003A80046F00BC047F02BC048F02CC049F02DC0D8
:1003B8004AF02EC04BF02FC04CF0320E1DEC02F06C
:1003C800000E446E640E436EC3EC02F0CAD728C018
:1003D80043F0010E431643501D6E1E6A28C043F0B9
:1003E800020E43164350196E1A6A28C043F0040ED1
:1003F80043164350176E186A28C043F0080E431678
:100408004350236E246A28C043F0100E431643500D
:100418001F6E206A28C043F0200E431643501B6EFF
:100428001C6A28C043F0400E43164350216E226ACE
:1004380012004D6E000E0F01236F000E0F01246F86
:100448004DC021FF43C022FF44C025FF45C026FF01
:1004580046C027FF47C028FF48C029FF49C02AFFD8
:100468004AC02BFF4BC02CFF4CC02DFF0F0120872B
:10047800120000EE01F0340EEE6AE806FDE1980E77
:10048800F66E050EF76E000EF86E0900F5CF4EF009
:100498000900F5CF4FF0519051920001B0EF01F0F3
:1004A8001350231804E114502418D8B4120023C0A0
:1004B80013F024C014F013B002D08A9A01D08A8AAB
:1004C80012000D501F1804E10E502018D8B4120065
:1004D8001FC00DF020C00EF00DB002D08A9C01D0D4
:1004E8008A8C12000350171804E104501818D8B465
:1004F800120017C003F018C004F003B002D08A9E9F
:1005080001D08A8E12000150151804E10250161805
:10051800D8B4120015C001F016C002F001C08AFF5D
:1005280012000F50211804E110502218D8B41200FC
:1005380021C00FF022C010F0120009501B1804E16E
:100548000A501C18D8B412001BC009F01CC00AF0CD
:1005580012000750191804E108501A18D8B41200EC
:1005680019C007F01AC008F0120080A003D0436A2F
:10057800432A01D0436A4350056E066A12004306B7
:10058800D8A044064328FBE14428D8B41200F7D782
:04059800020112004A
:020000040020DA
:08000000FFFFFFFFFFFFFFFF00
:020000040030CA
:0E0000001D087F7FFF8991FF0FC00FE00F40AA
:00000001FF
