:040000009DEF00F080
:100008005482FACF43F0FBCF44F0E9CF45F0EACF72
:1000180046F0E1CF47F0E2CF48F0D9CF49F0DACF48
:100028004AF0F3CF4BF0F4CF4CF0F6CF4DF0F7CFCA
:100038004EF0F8CF4FF0F5CF50F077AE04D00F0167
:1000480020B98A82779EF2A40BD00D500E10D8A446
:1000580006D0010E0526000E062207220822F29479
:100068009EA049D021042210D8A420D0010E012638
:10007800000E0222032204220D0E011802100310A2
:100088000410D8B48A9A04BE11D004500310021088
:1000980004E11B0E015CD8A009D08A8A000E016E0B
:1000A800000E026E000E036E000E046E1B041C1080
:1000B800D8A420D0010E0126000E02220322042219
:1000C8000D0E0118021003100410D8B48A9C04BE47
:1000D80011D004500310021004E11B0E015CD8A0DB
:1000E80009D08A8C000E016E000E026E000E036E9F
:1000F800000E046E9E9050C0F5FF4FC0F8FF4EC032
:10010800F7FF4DC0F6FF4CC0F4FF4BC0F3FF4AC0E9
:10011800DAFF49C0D9FF48C0E2FF47C0E1FF46C047
:10012800EAFF45C0E9FF44C0FBFF43C0FAFF549211
:10013800110094EF03F035C060F0010E0001601764
:10014800000160512B6E2C6A35C060F0020E000170
:10015800601700016051276E286A28342830000192
:10016800606F2730276E60C028F035C060F0040E3D
:100178000001601700016051256E266A25C060F0F5
:1001880026C061F0000161356133603300016135DB
:100198006133603360C025F061C026F035C060F07F
:1001A800080E0001601700016051316E326A31C0DB
:1001B80060F032C061F000016135613360330001E5
:1001C800613561336033000161356133603360C08C
:1001D80031F061C032F035C060F0100E00016017D8
:1001E800000160512D6E2E6A2DC060F02EC061F0A6
:1001F800040E0001626F0001613561336033000154
:10020800622FF9D760C02DF061C02EF035C060F0C4
:10021800200E0001601700016051296E2A6A29C06A
:1002280060F02AC061F0050E0001626F00016135BF
:10023800613360330001622FF9D760C029F061C0D3
:100248002AF035C060F0400E0001601700016051CF
:100258002F6E306A2FC060F030C061F0060E0001CA
:10026800626F00016135613360330001622FF9D795
:1002780060C02FF061C030F01200800E6F6E6E38D3
:10028800E832070B040AD8A4FAD7400E726E810E22
:100298000E01436FB80E0E01446F050E0E01456F37
:1002A800F80E0E017D6F000E0E01FA6F000E0E01A2
:1002B800FB6F0E01F869E00E0E01F96F000E0E01DA
:1002C800FE6F000E0E01FF6F0E01FC69E00E0E01BD
:1002D800FD6F070E0E01466F000E0E01476FC00E30
:1002E8000E01796F0E017A690E017B690E017C6936
:1002F800100E0E01716FF20E0E01726F0E0173690E
:100308000E0174690E0175690E0176690E0177692F
:100318000E017869000E0E01E26F000E0E01E36F08
:10032800320E0E01E06FC00E0E01E16F000E0E01DD
:10033800E66F000E0E01E76F330E0E01E46F400EFC
:100348000E01E56F000E0E01EA6F000E0E01EB6F55
:10035800330E0E01E86FC00E0E01E96F0ED06E3835
:10036800E832070B400AD8A417D0F9D76E38E8321C
:10037800070B600AD8A410D0F9D7000E6F6E6E383C
:10038800E832070B0009D8A407D0F9D76E38E8324D
:10039800070B400AD8B4FAD7000E606E000E0F01A2
:1003A800306F1200010E536ED388D38AD38C9B8C86
:1003B800000E346E000E336E000E376E3F0E926ED6
:1003C800010E0F015D6F000E0F015C6F000EC26E13
:1003D800000EC16E000EC06EC08EC050C70B08095B
:1003E800C06EC050F80B0209C06E000E896E1D0E5B
:1003F800936E000E8A6E000E946E000E8B6E000EC9
:10040800166E000E156E000E126E000E116E000EA6
:10041800226E000E216E000E1C6E000E1B6E000E6A
:10042800186E000E176E000E1E6E000E1D6E000E6A
:10043800106E000E0F6E000E2C6E000E2B6E000E4E
:10044800286E000E276E000E266E000E256E000E1A
:10045800326E000E316E000E2E6E000E2D6E000EE6
:100468002A6E000E296E000E306E000E2F6E000EE2
:10047800246E000E236E000E146E000E136E000E16
:10048800206E000E1F6E000E1A6E000E196ED58EAD
:10049800D59CD59AD596D580D582D584CD9CCD9E30
:1004A800CD86CD88CD8ACD84CD82CD80AA9E1200FE
:1004B800D6EC01F041EC01F0ABEC03F0000E056E58
:1004C800000E066E000E076E000E086E000E0E6E11
:1004D800010E0D6E000E096E000E0A6E000E0B6EF8
:1004E800000E0C6E898E8A92CDEC02F00009D8B409
:1004F80013D0000E0E6E000E0D6E898C9FEC00F06E
:100508002B042C10D8A408D0000E056E000E066E21
:10051800000E076E000E086E08BE09D008500710BE
:10052800061003E1040E055CD8B02FEC04F01CECB7
:1005380004F0E7EC03F07BEC03F05DEC03F010EC67
:1005480004F004EC04F0D4EC03F028EC04F0C00E42
:100558000001606F080E0001616F13C062F01FC0D8
:1005680063F0010E0001646F39C065F03AC066F0AF
:100578003BC067F03CC068F03DC069F0320E3CEC0F
:1005880003F0000E0001616F0A0E606FF8EC03F0D3
:10059800ABD7000E0001606F60AE1CD063CF3FF098
:1005A80064CF40F061CF41F062CF42F065CF3EF0BA
:1005B80066CF35F067CF36F068CF38F069CF39F0BD
:1005C8006ACF3AF06BCF3BF06CCF3CF06DCF3DF08B
:1005D800609E3FD00F0130AF1DD033CF3FF034CFF6
:1005E80040F031CF41F032CF42F035CF3EF036CF38
:1005F80035F037CF36F038CF38F039CF39F03ACF39
:100608003AF03BCF3BF03CCF3CF03DCF3DF00F0103
:10061800309F1FD00E0180AF1FD083CE3FF084CE15
:1006280040F081CE41F082CE42F085CE3EF086CEBB
:1006380035F087CE36F088CE38F089CE39F08ACEBC
:100648003AF08BCE3BF08CCE3CF08DCE3DF00E01D7
:10065800809F010E0001606F00016005D8A406D0DC
:10066800000E0001606F7792010E1200000E12005A
:1006780000016A6F000E0F01236F000E0F01246F37
:100688006AC021FF60C022FF61C025FF62C026FF4B
:1006980063C027FF64C028FF65C029FF66C02AFF22
:1006A80067C02BFF68C02CFF69C02DFF0F01208792
:1006B80012001B502D1804E11C502E18D8B412003B
:1006C8002DC01BF02EC01CF01BB002D08A9C01D09C
:1006D8008A8C000E016E000E026E000E036E000E74
:1006E800046E1BB002D08A9C01D08A8C1200215063
:1006F800311804E122503218D8B4120031C021F068
:1007080032C022F0000E016E000E026E000E036E63
:10071800000E046E21B002D08A9A01D08A8A120093
:1007280000EE01F0420EEE6AE806FDE1640EF66E98
:10073800080EF76E000EF86E0900F5CF51F00900AB
:10074800F5CF52F05490549200015CEF02F0D08E35
:10075800F28EF28CF28A000E056E000E066E000E06
:10076800076E000E086E9D80000E016E000E026E70
:10077800000E036E000E046E1200000EC26EC280E0
:10078800F40E0001616F000E606FF8EC03F0C28296
:10079800C2B2FED7C290C4CF62F00001636B1200F0
:1007A80036500001606F616B0F500001601905E160
:1007B800105000016119D8B4120036C08BFF36C042
:1007C8000FF0106A12001150251804E11250261873
:1007D800D8B4120025C011F026C012F011B002D012
:1007E8008A9E01D08A8E120000016007D8A0610796
:1007F80000016029F9E100016129D8B41200F4D799
:100808001D502F1804E11E503018D8B412002FC004
:100818001DF030C01EF012001750291804E11850BE
:100828002A18D8B4120029C017F02AC018F01200EC
:100838001550271804E116502818D8B4120027C0FC
:1008480015F028C016F01200C1EC03F062C013F0D6
:0E08580063C014F01200899C8A82FDD7020151
:020000040020DA
:08000000FFFFFFFFFFFFFFFF00
:020000040030CA
:0E0000001D087F7FFF8991FF0FC00FE00F40AA
:00000001FF
