:040000004CEF00F0D1
:100008005182FACF3DF0FBCF3EF0E9CF3FF0EACF87
:1000180040F0E1CF41F0E2CF42F0D9CF43F0DACF60
:1000280044F0F3CF45F0F4CF46F0F6CF47F0F7CFE2
:1000380048F0F8CF49F0F5CF4AF077AE03D00F017A
:1000480020B98A8205500610D8B4F2A403D02B4AEE
:100058002C2AF2944AC0F5FF49C0F8FF48C0F7FFC0
:1000680047C0F6FF46C0F4FF45C0F3FF44C0DAFFBF
:1000780043C0D9FF42C0E2FF41C0E1FF40C0EAFFF0
:100088003FC0E9FF3EC0FBFF3DC0FAFF519211009F
:10009800CDEF02F0800E6F6E6E38E832070B040A5F
:1000A800D8A4FAD7400E726E810E0E01436FB80EB7
:1000B8000E01446F050E0E01456FF80E0E017D6F9F
:1000C800000E0E01FA6F000E0E01FB6F0E01F869AB
:1000D800E00E0E01F96F000E0E01FE6F000E0E010C
:1000E800FF6F0E01FC69E00E0E01FD6F070E0E0199
:1000F800466F000E0E01476FC00E0E01796F0E019C
:100108007A690E017B690E017C69100E0E01716F10
:10011800F20E0E01726F0E0173690E0174690E0101
:1001280075690E0176690E0177690E017869000E0E
:100138000E01E26F000E0E01E36F320E0E01E06F4A
:10014800C00E0E01E16F000E0E01E66F000E0E01EB
:10015800E76F330E0E01E46F400E0E01E56F000EDF
:100168000E01EA6F000E0E01EB6F330E0E01E86F01
:10017800C00E0E01E96F0ED06E38E832070B400A48
:10018800D8A417D0F9D76E38E832070B600AD8A47C
:1001980010D0F9D7000E6F6E6E38E832070B0009E1
:1001A800D8A407D0F9D76E38E832070B400AD8B47C
:1001B800FAD7000E606E000E0F01306F120030C0CB
:1001C8004BF0010E4B164B50236E246A30C04BF097
:1001D800020E4B164B501F6E206A203420304B6E97
:1001E8001F301F6E4BC020F030C04BF0040E4B1672
:1001F8004B501D6E1E6A1DC04BF01EC04CF04C3497
:100208004C324B324C344C324B324BC01DF04CC04C
:100218001EF030C04BF0080E4B164B50296E2A6A60
:1002280029C04BF02AC04CF04C344C324B324C3481
:100238004C324B324C344C324B324BC029F04CC010
:100248002AF030C04BF0100E4B164B50256E266A24
:1002580025C04BF026C04CF0040E4D6E4C344C3289
:100268004B324D2EFBD74BC025F04CC026F030C08A
:100278004BF0200E4B164B50216E226A21C04BF0DA
:1002880022C04CF0050E4D6E4C344C324B324D2E84
:10029800FBD74BC021F04CC022F030C04BF0400ED1
:1002A8004B164B50276E286A27C04BF028C04CF0DD
:1002B800060E4D6E4C344C324B324D2EFBD74BC094
:1002C80027F04CC028F01200010E506ED388D38A54
:1002D800D38C9B8C000E2E6E000E2D6E000E316E90
:1002E8003F0E926E010E0F015D6F000E0F015C6FE5
:1002F800000EC26E000EC16E000EC06EC08EC050E1
:10030800C70B0809C06EC050F80B0209C06E000E7A
:10031800896E1D0E936E000E8A6E000E946E000E8E
:100328008B6E000E0E6E000E0D6E000E0A6E000E25
:10033800096E000E1A6E000E196E000E146E000E75
:10034800136E000E106E000E0F6E000E166E000E6D
:10035800156E000E086E000E076E000E246E000E5D
:10036800236E000E206E000E1F6E000E1E6E000E15
:100378001D6E000E2A6E000E296E000E266E000EEF
:10038800256E000E226E000E216E000E286E000EE5
:10039800276E000E1C6E000E1B6E000E0C6E000EFB
:1003A8000B6E000E186E000E176E000E126E000E09
:1003B800116ED58ED59CD59AD596D580D582D58403
:1003C8001200000E4B6E60AE1CD063CF39F064CFC4
:1003D8003AF061CF3BF062CF3CF065CF38F066CFA2
:1003E80030F067CF2FF068CF32F069CF33F06ACFA3
:1003F80034F06BCF35F06CCF36F06DCF37F0609EB0
:100408003FD00F0130AF1DD033CF39F034CF3AF0A1
:1004180031CF3BF032CF3CF035CF38F036CF30F02B
:1004280037CF2FF038CF32F039CF33F03ACF34F01E
:100438003BCF35F03CCF36F03DCF37F00F01309F42
:100448001FD00E0180AF1ED083CE39F084CE3AF093
:1004580081CE3BF082CE3CF085CE38F086CE30F0AF
:1004680087CE2FF088CE32F089CE33F08ACE34F0A2
:100478008BCE35F08CCE36F08DCE37F00E01809FC6
:10048800010E4B6E4B04D8A405D0000E4B6E77922C
:10049800010E1200000E120068EC01F04EEC00F0A4
:1004A8006BEC03F0000E2C6E000E2B6E000E066E29
:1004B800010E056E000E016E000E026E000E036E38
:1004C800000E046E898E8A92E5EC01F00009D8B41A
:1004D8000FD0000E066E000E056E898CE3EC00F05E
:1004E80023042410D8A404D0000E2C6E000E2B6E0A
:1004F8004FEC03F018EC03F0F6EC02F007EC03F015
:1005080043EC03F037EC03F029EC03F064EC03F060
:10051800C00E0001606F080E0001616F0BC062F031
:1005280017C063F0010E0001646F33C065F034C07A
:1005380066F035C067F036C068F037C069F0320E33
:10054800ADEC02F0000E4C6E0A0E4B6E5BEC03F045
:10055800BBD74B6E000E0F01236F000E0F01246FE7
:100568004BC021FF60C022FF61C025FF62C026FF8B
:1005780063C027FF64C028FF65C029FF66C02AFF43
:1005880067C02BFF68C02CFF69C02DFF0F012087B3
:10059800120000EE01F03C0EEE6AE806FDE1E60E00
:1005A800F66E060EF76E000EF86E0900F5CF4EF0E7
:1005B8000900F5CF4FF051905192000150EF02F031
:1005C800000EC26EC280F40E4C6E000E4B6E5BECD9
:1005D80003F0C282C2B2FED7C290C4CF60F000015D
:1005E800616B12001950291804E11A502A18D8B45E
:1005F800120029C019F02AC01AF019B002D08A9A3C
:1006080001D08A8A12001350251804E114502618C4
:10061800D8B4120025C013F026C014F013B002D0CD
:100628008A9C01D08A8C120009501D1804E10A50D6
:100638001E18D8B412001DC009F01EC00AF009B077
:1006480002D08A9E01D08A8E120007501B1804E13E
:1006580008501C18D8B412001BC007F01CC008F0C2
:1006680007C08AFF12001550271804E116502818F1
:10067800D8B4120027C015F028C016F012000F5089
:10068800211804E110502218D8B4120021C00FF02C
:1006980022C010F012000D501F1804E10E5020184F
:1006A800D8B412001FC00DF020C00EF012004B0687
:1006B800D8A04C064B28FBE14C28D8B41200F7D739
:1006C800E4EC02F060C00BF061C00CF01200D08EB8
:1006D800F28EF28CF28A1200899C8A82FDD702017E
:020000040020DA
:08000000FFFFFFFFFFFFFFFF00
:020000040030CA
:0E0000001D087F7FFF8991FF0FC00FE00F40AA
:00000001FF
