:0400000044EF00F0D9
:100008003082FACF01F0FBCF02F0E9CF03F0EACF5C
:1000180004F0E1CF05F0E2CF06F0D9CF07F0DACF50
:1000280008F0F3CF09F0F4CF0AF0F6CF0BF0F7CFD2
:100038000CF0F8CF0DF0F5CF0EF077AE03D00F012E
:1000480020B9FFD70EC0F5FF0DC0F8FF0CC0F7FFB1
:100058000BC0F6FF0AC0F4FF09C0F3FF08C0DAFFBF
:1000680007C0D9FF06C0E2FF05C0E1FF04C0EAFFF0
:1000780003C0E9FF02C0FBFF01C0FAFF3092110084
:10008800D2EF01F0800E6F6E6E38E832070B040A6B
:10009800D8A4FAD7400E726E810E0E01436FB80EC7
:1000A8000E01446F050E0E01456FF80E0E017D6FAF
:1000B800000E0E01FA6F000E0E01FB6F0E01F869BB
:1000C800E00E0E01F96F000E0E01FE6F000E0E011C
:1000D800FF6F0E01FC69E00E0E01FD6F070E0E01A9
:1000E800466F000E0E01476FC00E0E01796F0E01AC
:1000F8007A690E017B690E017C69100E0E01716F21
:10010800F20E0E01726F0E0173690E0174690E0111
:1001180075690E0176690E0177690E017869000E1E
:100128000E01E26F000E0E01E36F320E0E01E06F5A
:10013800C00E0E01E16F000E0E01E66F000E0E01FB
:10014800E76F330E0E01E46F400E0E01E56F000EEF
:100158000E01EA6F000E0E01EB6F330E0E01E86F11
:10016800C00E0E01E96F0ED06E38E832070B400A58
:10017800D8A417D0F9D76E38E832070B600AD8A48C
:1001880010D0F9D7000E6F6E6E38E832070B0009F1
:10019800D8A407D0F9D76E38E832070B400AD8B48C
:1001A800FAD7000E606E000E0F01306F1200000EBD
:1001B8000F6E60AE1CD063CF27F064CF28F061CFFC
:1001C80029F062CF2AF065CF26F066CF1CF067CF02
:1001D8001FF068CF20F069CF21F06ACF22F06BCFF3
:1001E80023F06CCF24F06DCF25F0609E3FD00F0137
:1001F80030AF1DD033CF27F034CF28F031CF29F0DE
:1002080032CF2AF035CF26F036CF1EF037CF1FF089
:1002180038CF20F039CF21F03ACF22F03BCF23F06E
:100228003CCF24F03DCF25F00F01309F1FD00E01A9
:1002380080AF1ED083CE27F084CE28F081CE29F05F
:1002480082CE2AF085CE26F086CE1EF087CE1FF00D
:1002580088CE20F089CE21F08ACE22F08BCE23F0F2
:100268008CCE24F08DCE25F00E01809F010E0F6EEE
:100278000F04D8A405D0000E0F6E7792010E12005D
:10028800000E120081A002D0010E01D0000E116EE6
:10029800126A2B50111804E12C501218D8B414D03B
:1002A80081A009D0000E2C6E010E2B6E000E106E70
:1002B800010E0F6E1200000E2C6E000E2B6E000E3B
:1002C800106E010E0F6E1200000E106E000E0F6EF3
:1002D800120046EC01F00F501010D8B41CD0C00E1C
:1002E8000F6E030E106E2FC011F02BC012F0000E0F
:1002F800136E000E146E000E156E000E166E000EB4
:10030800176E000E186E320E92EC01F02BB002D070
:100318008B9E01D08B8E0FEC02F01200196E000E2E
:100328000F01236F000E0F01246F19C021FF0FC0AA
:1003380022FF10C025FF11C026FF12C027FF13C0DF
:1003480028FF14C029FF15C02AFF16C02BFF17C0AD
:100358002CFF18C02DFF0F0120871200010E2D6EF3
:10036800D388D38AD38C9B8C000E1B6E000E1A6E1A
:10037800000E1D6E000E0F015C6F5CCF5DFF936871
:10038800949E8B9E949C8B9C81A003D00F6A0F2A0D
:1003980001D00F6A0F502B6E2C6A120000EE1AF073
:1003A800110EEE6AE806FDE1280EF66E040EF76EF1
:1003B800000EF86E0900F5CF2EF00900F5CF2FF0EA
:1003C80030903092000EF86E0001EBEF01F0B2ECC5
:1003D80001F046EC00F08B8C6DEC01F0FBEC01F0C9
:1003E800000E106E640E0F6E06EC02F0F5D7DBEC13
:1003F80000F00009D8B412001C50010AD8B4120049
:10040800030A12000F06D8A010060F28FBE11028D7
:10041800D8B41200F7D7000E106E000E0F6E12003F
:020428000201CF
:020000040020DA
:08000000FFFFFFFFFFFFFFFF00
:020000040030CA
:0E0000001D087F7FFF8991FF0FC00FE00F40AA
:00000001FF
